{
  "contractName": "BooMirrorWorld",
  "abi": [
    {
      "inputs": [
        {
          "internalType": "contract IERC20",
          "name": "_boo",
          "type": "address"
        }
      ],
      "stateMutability": "nonpayable",
      "type": "constructor"
    },
    {
      "anonymous": false,
      "inputs": [
        {
          "indexed": true,
          "internalType": "address",
          "name": "owner",
          "type": "address"
        },
        {
          "indexed": true,
          "internalType": "address",
          "name": "spender",
          "type": "address"
        },
        {
          "indexed": false,
          "internalType": "uint256",
          "name": "value",
          "type": "uint256"
        }
      ],
      "name": "Approval",
      "type": "event"
    },
    {
      "anonymous": false,
      "inputs": [
        {
          "indexed": true,
          "internalType": "address",
          "name": "delegator",
          "type": "address"
        },
        {
          "indexed": true,
          "internalType": "address",
          "name": "fromDelegate",
          "type": "address"
        },
        {
          "indexed": true,
          "internalType": "address",
          "name": "toDelegate",
          "type": "address"
        }
      ],
      "name": "DelegateChanged",
      "type": "event"
    },
    {
      "anonymous": false,
      "inputs": [
        {
          "indexed": true,
          "internalType": "address",
          "name": "delegate",
          "type": "address"
        },
        {
          "indexed": false,
          "internalType": "uint256",
          "name": "previousBalance",
          "type": "uint256"
        },
        {
          "indexed": false,
          "internalType": "uint256",
          "name": "newBalance",
          "type": "uint256"
        }
      ],
      "name": "DelegateVotesChanged",
      "type": "event"
    },
    {
      "anonymous": false,
      "inputs": [
        {
          "indexed": true,
          "internalType": "address",
          "name": "from",
          "type": "address"
        },
        {
          "indexed": true,
          "internalType": "address",
          "name": "to",
          "type": "address"
        },
        {
          "indexed": false,
          "internalType": "uint256",
          "name": "value",
          "type": "uint256"
        }
      ],
      "name": "Transfer",
      "type": "event"
    },
    {
      "inputs": [],
      "name": "DELEGATION_TYPEHASH",
      "outputs": [
        {
          "internalType": "bytes32",
          "name": "",
          "type": "bytes32"
        }
      ],
      "stateMutability": "view",
      "type": "function"
    },
    {
      "inputs": [],
      "name": "DOMAIN_TYPEHASH",
      "outputs": [
        {
          "internalType": "bytes32",
          "name": "",
          "type": "bytes32"
        }
      ],
      "stateMutability": "view",
      "type": "function"
    },
    {
      "inputs": [
        {
          "internalType": "address",
          "name": "owner",
          "type": "address"
        },
        {
          "internalType": "address",
          "name": "spender",
          "type": "address"
        }
      ],
      "name": "allowance",
      "outputs": [
        {
          "internalType": "uint256",
          "name": "",
          "type": "uint256"
        }
      ],
      "stateMutability": "view",
      "type": "function"
    },
    {
      "inputs": [
        {
          "internalType": "address",
          "name": "spender",
          "type": "address"
        },
        {
          "internalType": "uint256",
          "name": "amount",
          "type": "uint256"
        }
      ],
      "name": "approve",
      "outputs": [
        {
          "internalType": "bool",
          "name": "",
          "type": "bool"
        }
      ],
      "stateMutability": "nonpayable",
      "type": "function"
    },
    {
      "inputs": [
        {
          "internalType": "address",
          "name": "account",
          "type": "address"
        }
      ],
      "name": "balanceOf",
      "outputs": [
        {
          "internalType": "uint256",
          "name": "",
          "type": "uint256"
        }
      ],
      "stateMutability": "view",
      "type": "function"
    },
    {
      "inputs": [],
      "name": "boo",
      "outputs": [
        {
          "internalType": "contract IERC20",
          "name": "",
          "type": "address"
        }
      ],
      "stateMutability": "view",
      "type": "function"
    },
    {
      "inputs": [
        {
          "internalType": "address",
          "name": "",
          "type": "address"
        },
        {
          "internalType": "uint32",
          "name": "",
          "type": "uint32"
        }
      ],
      "name": "checkpoints",
      "outputs": [
        {
          "internalType": "uint32",
          "name": "fromBlock",
          "type": "uint32"
        },
        {
          "internalType": "uint256",
          "name": "votes",
          "type": "uint256"
        }
      ],
      "stateMutability": "view",
      "type": "function"
    },
    {
      "inputs": [],
      "name": "decimals",
      "outputs": [
        {
          "internalType": "uint8",
          "name": "",
          "type": "uint8"
        }
      ],
      "stateMutability": "view",
      "type": "function"
    },
    {
      "inputs": [
        {
          "internalType": "address",
          "name": "spender",
          "type": "address"
        },
        {
          "internalType": "uint256",
          "name": "subtractedValue",
          "type": "uint256"
        }
      ],
      "name": "decreaseAllowance",
      "outputs": [
        {
          "internalType": "bool",
          "name": "",
          "type": "bool"
        }
      ],
      "stateMutability": "nonpayable",
      "type": "function"
    },
    {
      "inputs": [
        {
          "internalType": "address",
          "name": "spender",
          "type": "address"
        },
        {
          "internalType": "uint256",
          "name": "addedValue",
          "type": "uint256"
        }
      ],
      "name": "increaseAllowance",
      "outputs": [
        {
          "internalType": "bool",
          "name": "",
          "type": "bool"
        }
      ],
      "stateMutability": "nonpayable",
      "type": "function"
    },
    {
      "inputs": [],
      "name": "name",
      "outputs": [
        {
          "internalType": "string",
          "name": "",
          "type": "string"
        }
      ],
      "stateMutability": "view",
      "type": "function"
    },
    {
      "inputs": [
        {
          "internalType": "address",
          "name": "",
          "type": "address"
        }
      ],
      "name": "nonces",
      "outputs": [
        {
          "internalType": "uint256",
          "name": "",
          "type": "uint256"
        }
      ],
      "stateMutability": "view",
      "type": "function"
    },
    {
      "inputs": [
        {
          "internalType": "address",
          "name": "",
          "type": "address"
        }
      ],
      "name": "numCheckpoints",
      "outputs": [
        {
          "internalType": "uint32",
          "name": "",
          "type": "uint32"
        }
      ],
      "stateMutability": "view",
      "type": "function"
    },
    {
      "inputs": [],
      "name": "symbol",
      "outputs": [
        {
          "internalType": "string",
          "name": "",
          "type": "string"
        }
      ],
      "stateMutability": "view",
      "type": "function"
    },
    {
      "inputs": [],
      "name": "totalSupply",
      "outputs": [
        {
          "internalType": "uint256",
          "name": "",
          "type": "uint256"
        }
      ],
      "stateMutability": "view",
      "type": "function"
    },
    {
      "inputs": [
        {
          "internalType": "uint256",
          "name": "_amount",
          "type": "uint256"
        }
      ],
      "name": "enter",
      "outputs": [],
      "stateMutability": "nonpayable",
      "type": "function"
    },
    {
      "inputs": [
        {
          "internalType": "uint256",
          "name": "_share",
          "type": "uint256"
        }
      ],
      "name": "leave",
      "outputs": [],
      "stateMutability": "nonpayable",
      "type": "function"
    },
    {
      "inputs": [
        {
          "internalType": "address",
          "name": "_account",
          "type": "address"
        }
      ],
      "name": "BOOBalance",
      "outputs": [
        {
          "internalType": "uint256",
          "name": "booAmount_",
          "type": "uint256"
        }
      ],
      "stateMutability": "view",
      "type": "function"
    },
    {
      "inputs": [
        {
          "internalType": "uint256",
          "name": "_xBOOAmount",
          "type": "uint256"
        }
      ],
      "name": "xBOOForBOO",
      "outputs": [
        {
          "internalType": "uint256",
          "name": "booAmount_",
          "type": "uint256"
        }
      ],
      "stateMutability": "view",
      "type": "function"
    },
    {
      "inputs": [
        {
          "internalType": "uint256",
          "name": "_booAmount",
          "type": "uint256"
        }
      ],
      "name": "BOOForxBOO",
      "outputs": [
        {
          "internalType": "uint256",
          "name": "xBOOAmount_",
          "type": "uint256"
        }
      ],
      "stateMutability": "view",
      "type": "function"
    },
    {
      "inputs": [
        {
          "internalType": "address",
          "name": "sender",
          "type": "address"
        },
        {
          "internalType": "address",
          "name": "recipient",
          "type": "address"
        },
        {
          "internalType": "uint256",
          "name": "amount",
          "type": "uint256"
        }
      ],
      "name": "transferFrom",
      "outputs": [
        {
          "internalType": "bool",
          "name": "",
          "type": "bool"
        }
      ],
      "stateMutability": "nonpayable",
      "type": "function"
    },
    {
      "inputs": [
        {
          "internalType": "address",
          "name": "recipient",
          "type": "address"
        },
        {
          "internalType": "uint256",
          "name": "amount",
          "type": "uint256"
        }
      ],
      "name": "transfer",
      "outputs": [
        {
          "internalType": "bool",
          "name": "",
          "type": "bool"
        }
      ],
      "stateMutability": "nonpayable",
      "type": "function"
    },
    {
      "inputs": [
        {
          "internalType": "address",
          "name": "delegator",
          "type": "address"
        }
      ],
      "name": "delegates",
      "outputs": [
        {
          "internalType": "address",
          "name": "",
          "type": "address"
        }
      ],
      "stateMutability": "view",
      "type": "function"
    },
    {
      "inputs": [
        {
          "internalType": "address",
          "name": "delegatee",
          "type": "address"
        }
      ],
      "name": "delegate",
      "outputs": [],
      "stateMutability": "nonpayable",
      "type": "function"
    },
    {
      "inputs": [
        {
          "internalType": "address",
          "name": "delegatee",
          "type": "address"
        },
        {
          "internalType": "uint256",
          "name": "nonce",
          "type": "uint256"
        },
        {
          "internalType": "uint256",
          "name": "expiry",
          "type": "uint256"
        },
        {
          "internalType": "uint8",
          "name": "v",
          "type": "uint8"
        },
        {
          "internalType": "bytes32",
          "name": "r",
          "type": "bytes32"
        },
        {
          "internalType": "bytes32",
          "name": "s",
          "type": "bytes32"
        }
      ],
      "name": "delegateBySig",
      "outputs": [],
      "stateMutability": "nonpayable",
      "type": "function"
    },
    {
      "inputs": [
        {
          "internalType": "address",
          "name": "account",
          "type": "address"
        }
      ],
      "name": "getCurrentVotes",
      "outputs": [
        {
          "internalType": "uint256",
          "name": "",
          "type": "uint256"
        }
      ],
      "stateMutability": "view",
      "type": "function"
    },
    {
      "inputs": [
        {
          "internalType": "address",
          "name": "account",
          "type": "address"
        },
        {
          "internalType": "uint256",
          "name": "blockNumber",
          "type": "uint256"
        }
      ],
      "name": "getPriorVotes",
      "outputs": [
        {
          "internalType": "uint256",
          "name": "",
          "type": "uint256"
        }
      ],
      "stateMutability": "view",
      "type": "function"
    }
  ],
  "bytecode": "0x60806040523480156200001157600080fd5b5060405162002a7038038062002a70833981810160405260208110156200003757600080fd5b5051604080518082018252600f81526e109bdbc8135a5c9c9bdc95dbdc9b19608a1b60208281019182528351808501909452600484526378424f4f60e01b9084015281519192916200008c91600391620000dc565b508051620000a2906004906020840190620000dc565b5050600580546001600160a01b0390931661010002610100600160a81b031960ff1990941660121793909316929092179091555062000178565b828054600181600116156101000203166002900490600052602060002090601f016020900481019282601f106200011f57805160ff19168380011785556200014f565b828001600101855582156200014f579182015b828111156200014f57825182559160200191906001019062000132565b506200015d92915062000161565b5090565b5b808211156200015d576000815560010162000162565b6128e880620001886000396000f3fe608060405234801561001057600080fd5b50600436106101b95760003560e01c806370a08231116100f9578063b4b5ea5711610097578063c3cda52011610071578063c3cda5201461061c578063dd62ed3e14610670578063e7a324dc146106ab578063f1127ed8146106b3576101b9565b8063b4b5ea5714610599578063bbe9b09e146105cc578063bc3bcb4f146105e9576101b9565b806395d89b41116100d357806395d89b4114610502578063a457c2d71461050a578063a59f3e0c14610543578063a9059cbb14610560576101b9565b806370a0823114610463578063782d6fe1146104965780637ecebe00146104cf576101b9565b80633950935111610166578063587cde1e11610140578063587cde1e146103925780635c19a95c146103c557806367dfd4c9146103fa5780636fcfff4514610417576101b9565b8063395093511461030b57806343b0ff51146103445780634b3df20014610361576101b9565b806320606b701161019757806320606b70146102a257806323b872dd146102aa578063313ce567146102ed576101b9565b806306fdde03146101be578063095ea7b31461023b57806318160ddd14610288575b600080fd5b6101c6610712565b6040805160208082528351818301528351919283929083019185019080838360005b838110156102005781810151838201526020016101e8565b50505050905090810190601f16801561022d5780820380516001836020036101000a031916815260200191505b509250505060405180910390f35b6102746004803603604081101561025157600080fd5b5073ffffffffffffffffffffffffffffffffffffffff81351690602001356107c6565b604080519115158252519081900360200190f35b6102906107e4565b60408051918252519081900360200190f35b6102906107ea565b610274600480360360608110156102c057600080fd5b5073ffffffffffffffffffffffffffffffffffffffff81358116916020810135909116906040013561080e565b6102f561086e565b6040805160ff9092168252519081900360200190f35b6102746004803603604081101561032157600080fd5b5073ffffffffffffffffffffffffffffffffffffffff8135169060200135610877565b6102906004803603602081101561035a57600080fd5b50356108d7565b6103696109b4565b6040805173ffffffffffffffffffffffffffffffffffffffff9092168252519081900360200190f35b610369600480360360208110156103a857600080fd5b503573ffffffffffffffffffffffffffffffffffffffff166109d5565b6103f8600480360360208110156103db57600080fd5b503573ffffffffffffffffffffffffffffffffffffffff16610a00565b005b6103f86004803603602081101561041057600080fd5b5035610a0d565b61044a6004803603602081101561042d57600080fd5b503573ffffffffffffffffffffffffffffffffffffffff16610b66565b6040805163ffffffff9092168252519081900360200190f35b6102906004803603602081101561047957600080fd5b503573ffffffffffffffffffffffffffffffffffffffff16610b7e565b610290600480360360408110156104ac57600080fd5b5073ffffffffffffffffffffffffffffffffffffffff8135169060200135610ba6565b610290600480360360208110156104e557600080fd5b503573ffffffffffffffffffffffffffffffffffffffff16610e70565b6101c6610e82565b6102746004803603604081101561052057600080fd5b5073ffffffffffffffffffffffffffffffffffffffff8135169060200135610f01565b6103f86004803603602081101561055957600080fd5b5035610f76565b6102746004803603604081101561057657600080fd5b5073ffffffffffffffffffffffffffffffffffffffff81351690602001356110e7565b610290600480360360208110156105af57600080fd5b503573ffffffffffffffffffffffffffffffffffffffff16611156565b610290600480360360208110156105e257600080fd5b50356111f2565b610290600480360360208110156105ff57600080fd5b503573ffffffffffffffffffffffffffffffffffffffff166112e8565b6103f8600480360360c081101561063257600080fd5b5073ffffffffffffffffffffffffffffffffffffffff8135169060208101359060408101359060ff6060820135169060808101359060a001356113c5565b6102906004803603604081101561068657600080fd5b5073ffffffffffffffffffffffffffffffffffffffff81358116916020013516611704565b61029061173c565b6106f2600480360360408110156106c957600080fd5b50803573ffffffffffffffffffffffffffffffffffffffff16906020013563ffffffff16611760565b6040805163ffffffff909316835260208301919091528051918290030190f35b60038054604080516020601f60027fffffffffffffffffffffffffffffffffffffffffffffffffffffffffffffffff6101006001881615020190951694909404938401819004810282018101909252828152606093909290918301828280156107bc5780601f10610791576101008083540402835291602001916107bc565b820191906000526020600020905b81548152906001019060200180831161079f57829003601f168201915b5050505050905090565b60006107da6107d361178d565b8484611791565b5060015b92915050565b60025490565b7f8cad95687ba82c2ce50e74f7b754645e5117c3a5bec8151c0726d5857980a86681565b60008061081c8585856118d8565b905061082784611974565b73ffffffffffffffffffffffffffffffffffffffff808616600090815260066020526040808220548784168352912054610866929182169116856119ef565b949350505050565b60055460ff1690565b60006107da61088461178d565b846108d2856001600061089561178d565b73ffffffffffffffffffffffffffffffffffffffff908116825260208083019390935260409182016000908120918c168152925290205490611bbf565b611791565b6000806108e26107e4565b90506109ad816109a7600560019054906101000a900473ffffffffffffffffffffffffffffffffffffffff1673ffffffffffffffffffffffffffffffffffffffff166370a08231306040518263ffffffff1660e01b8152600401808273ffffffffffffffffffffffffffffffffffffffff16815260200191505060206040518083038186803b15801561097457600080fd5b505afa158015610988573d6000803e3d6000fd5b505050506040513d602081101561099e57600080fd5b50518690611c33565b90611ca6565b9392505050565b600554610100900473ffffffffffffffffffffffffffffffffffffffff1681565b73ffffffffffffffffffffffffffffffffffffffff9081166000908152600660205260409020541690565b610a0a3382611ce8565b50565b6000610a176107e4565b90506000610aab826109a7600560019054906101000a900473ffffffffffffffffffffffffffffffffffffffff1673ffffffffffffffffffffffffffffffffffffffff166370a08231306040518263ffffffff1660e01b8152600401808273ffffffffffffffffffffffffffffffffffffffff16815260200191505060206040518083038186803b15801561097457600080fd5b9050610ab73384611daf565b600554604080517fa9059cbb00000000000000000000000000000000000000000000000000000000815233600482015260248101849052905161010090920473ffffffffffffffffffffffffffffffffffffffff169163a9059cbb916044808201926020929091908290030181600087803b158015610b3557600080fd5b505af1158015610b49573d6000803e3d6000fd5b505050506040513d6020811015610b5f57600080fd5b5050505050565b60086020526000908152604090205463ffffffff1681565b73ffffffffffffffffffffffffffffffffffffffff1660009081526020819052604090205490565b6000438210610c00576040517f08c379a00000000000000000000000000000000000000000000000000000000081526004018080602001828103825260268152602001806127176026913960400191505060405180910390fd5b73ffffffffffffffffffffffffffffffffffffffff831660009081526008602052604090205463ffffffff1680610c3b5760009150506107de565b73ffffffffffffffffffffffffffffffffffffffff8416600090815260076020908152604080832063ffffffff7fffffffffffffffffffffffffffffffffffffffffffffffffffffffffffffffff860181168552925290912054168310610d005773ffffffffffffffffffffffffffffffffffffffff841660009081526007602090815260408083207fffffffffffffffffffffffffffffffffffffffffffffffffffffffffffffffff9490940163ffffffff168352929052206001015490506107de565b73ffffffffffffffffffffffffffffffffffffffff8416600090815260076020908152604080832083805290915290205463ffffffff16831015610d485760009150506107de565b60007fffffffffffffffffffffffffffffffffffffffffffffffffffffffffffffffff82015b8163ffffffff168163ffffffff161115610e2c57600282820363ffffffff16048103610d98612672565b5073ffffffffffffffffffffffffffffffffffffffff8716600090815260076020908152604080832063ffffffff808616855290835292819020815180830190925280549093168082526001909301549181019190915290871415610e07576020015194506107de9350505050565b805163ffffffff16871115610e1e57819350610e25565b6001820392505b5050610d6e565b5073ffffffffffffffffffffffffffffffffffffffff8516600090815260076020908152604080832063ffffffff9094168352929052206001015491505092915050565b60096020526000908152604090205481565b60048054604080516020601f60027fffffffffffffffffffffffffffffffffffffffffffffffffffffffffffffffff6101006001881615020190951694909404938401819004810282018101909252828152606093909290918301828280156107bc5780601f10610791576101008083540402835291602001916107bc565b60006107da610f0e61178d565b846108d28560405180606001604052806025815260200161288e6025913960016000610f3861178d565b73ffffffffffffffffffffffffffffffffffffffff908116825260208083019390935260409182016000908120918d16815292529020549190611df0565b600554604080517f70a082310000000000000000000000000000000000000000000000000000000081523060048201529051600092610100900473ffffffffffffffffffffffffffffffffffffffff16916370a08231916024808301926020929190829003018186803b158015610fec57600080fd5b505afa158015611000573d6000803e3d6000fd5b505050506040513d602081101561101657600080fd5b5051905060006110246107e4565b9050801580611031575081155b15611045576110403384611ea1565b611063565b6000611055836109a78685611c33565b90506110613382611ea1565b505b600554604080517f23b872dd00000000000000000000000000000000000000000000000000000000815233600482015230602482015260448101869052905161010090920473ffffffffffffffffffffffffffffffffffffffff16916323b872dd916064808201926020929091908290030181600087803b158015610b3557600080fd5b6000806110f48484611ee6565b90506110ff84611974565b6109ad6006600061110e61178d565b73ffffffffffffffffffffffffffffffffffffffff908116825260208083019390935260409182016000908120548983168252600690945291909120549181169116856119ef565b73ffffffffffffffffffffffffffffffffffffffff811660009081526008602052604081205463ffffffff168061118e5760006109ad565b73ffffffffffffffffffffffffffffffffffffffff8316600090815260076020908152604080832063ffffffff7fffffffffffffffffffffffffffffffffffffffffffffffffffffffffffffffff8601168452909152902060010154915050919050565b600080600560019054906101000a900473ffffffffffffffffffffffffffffffffffffffff1673ffffffffffffffffffffffffffffffffffffffff166370a08231306040518263ffffffff1660e01b8152600401808273ffffffffffffffffffffffffffffffffffffffff16815260200191505060206040518083038186803b15801561127e57600080fd5b505afa158015611292573d6000803e3d6000fd5b505050506040513d60208110156112a857600080fd5b5051905060006112b66107e4565b90508015806112c3575081155b156112d0578392506112e1565b6112de826109a78684611c33565b92505b5050919050565b6000806112f483610b7e565b905060006113006107e4565b90506112de816109a7600560019054906101000a900473ffffffffffffffffffffffffffffffffffffffff1673ffffffffffffffffffffffffffffffffffffffff166370a08231306040518263ffffffff1660e01b8152600401808273ffffffffffffffffffffffffffffffffffffffff16815260200191505060206040518083038186803b15801561139257600080fd5b505afa1580156113a6573d6000803e3d6000fd5b505050506040513d60208110156113bc57600080fd5b50518590611c33565b60007f8cad95687ba82c2ce50e74f7b754645e5117c3a5bec8151c0726d5857980a8666113f0610712565b805190602001206113ff611efa565b60408051602080820195909552808201939093526060830191909152306080808401919091528151808403909101815260a0830182528051908401207fe48329057bfd03d55e49b547132e39cffd9c1820ad7b9d4c5307691425d15adf60c084015273ffffffffffffffffffffffffffffffffffffffff8b1660e084015261010083018a90526101208084018a905282518085039091018152610140840183528051908501207f19010000000000000000000000000000000000000000000000000000000000006101608501526101628401829052610182808501829052835180860390910181526101a285018085528151918701919091206000918290526101c2860180865281905260ff8b166101e287015261020286018a905261022286018990529351929650909492939092600192610242808401937fffffffffffffffffffffffffffffffffffffffffffffffffffffffffffffffe08301929081900390910190855afa158015611578573d6000803e3d6000fd5b50506040517fffffffffffffffffffffffffffffffffffffffffffffffffffffffffffffffe0015191505073ffffffffffffffffffffffffffffffffffffffff811661160f576040517f08c379a000000000000000000000000000000000000000000000000000000000815260040180806020018281038252602581526020018061273d6025913960400191505060405180910390fd5b73ffffffffffffffffffffffffffffffffffffffff811660009081526009602052604090208054600181019091558914611694576040517f08c379a00000000000000000000000000000000000000000000000000000000081526004018080602001828103825260218152602001806127f16021913960400191505060405180910390fd5b874211156116ed576040517f08c379a00000000000000000000000000000000000000000000000000000000081526004018080602001828103825260258152602001806128366025913960400191505060405180910390fd5b6116f7818b611ce8565b505050505b505050505050565b73ffffffffffffffffffffffffffffffffffffffff918216600090815260016020908152604080832093909416825291909152205490565b7fe48329057bfd03d55e49b547132e39cffd9c1820ad7b9d4c5307691425d15adf81565b60076020908152600092835260408084209091529082529020805460019091015463ffffffff9091169082565b3390565b73ffffffffffffffffffffffffffffffffffffffff83166117fd576040517f08c379a00000000000000000000000000000000000000000000000000000000081526004018080602001828103825260248152602001806128126024913960400191505060405180910390fd5b73ffffffffffffffffffffffffffffffffffffffff8216611869576040517f08c379a00000000000000000000000000000000000000000000000000000000081526004018080602001828103825260228152602001806126cf6022913960400191505060405180910390fd5b73ffffffffffffffffffffffffffffffffffffffff808416600081815260016020908152604080832094871680845294825291829020859055815185815291517f8c5be1e5ebec7d5bd14f71427d1e84f3dd0314c0f7b2291e5b200ac8c7c3b9259281900390910190a3505050565b60006118e5848484611efe565b61196a846118f161178d565b6108d2856040518060600160405280602881526020016127836028913973ffffffffffffffffffffffffffffffffffffffff8a1660009081526001602052604081209061193c61178d565b73ffffffffffffffffffffffffffffffffffffffff1681526020810191909152604001600020549190611df0565b5060019392505050565b73ffffffffffffffffffffffffffffffffffffffff81811660009081526006602052604090205416610a0a5773ffffffffffffffffffffffffffffffffffffffff16600081815260066020526040902080547fffffffffffffffffffffffff0000000000000000000000000000000000000000169091179055565b8173ffffffffffffffffffffffffffffffffffffffff168373ffffffffffffffffffffffffffffffffffffffff1614158015611a2b5750600081115b15611bba5773ffffffffffffffffffffffffffffffffffffffff831615611af75773ffffffffffffffffffffffffffffffffffffffff831660009081526008602052604081205463ffffffff169081611a85576000611ae2565b73ffffffffffffffffffffffffffffffffffffffff8516600090815260076020908152604080832063ffffffff7fffffffffffffffffffffffffffffffffffffffffffffffffffffffffffffffff87011684529091529020600101545b9050828103611af3868484846120ce565b5050505b73ffffffffffffffffffffffffffffffffffffffff821615611bba5773ffffffffffffffffffffffffffffffffffffffff821660009081526008602052604081205463ffffffff169081611b4c576000611ba9565b73ffffffffffffffffffffffffffffffffffffffff8416600090815260076020908152604080832063ffffffff7fffffffffffffffffffffffffffffffffffffffffffffffffffffffffffffffff87011684529091529020600101545b90508281016116fc858484846120ce565b505050565b6000828201838110156109ad57604080517f08c379a000000000000000000000000000000000000000000000000000000000815260206004820152601b60248201527f536166654d6174683a206164646974696f6e206f766572666c6f770000000000604482015290519081900360640190fd5b600082611c42575060006107de565b82820282848281611c4f57fe5b04146109ad576040517f08c379a00000000000000000000000000000000000000000000000000000000081526004018080602001828103825260218152602001806127626021913960400191505060405180910390fd5b60006109ad83836040518060400160405280601a81526020017f536166654d6174683a206469766973696f6e206279207a65726f0000000000008152506122be565b73ffffffffffffffffffffffffffffffffffffffff80831660009081526006602052604081205490911690611d1c84610b7e565b73ffffffffffffffffffffffffffffffffffffffff85811660008181526006602052604080822080547fffffffffffffffffffffffff000000000000000000000000000000000000000016898616908117909155905194955093928616927f3134e8a2e6d97e929a7e54011ea5485d7d196dd5f0ba4d4ef95803e8e3fc257f9190a4611da98284836119ef565b50505050565b611db9828261233d565b73ffffffffffffffffffffffffffffffffffffffff808316600090815260066020526040812054611dec921690836119ef565b5050565b60008184841115611e99576040517f08c379a00000000000000000000000000000000000000000000000000000000081526004018080602001828103825283818151815260200191508051906020019080838360005b83811015611e5e578181015183820152602001611e46565b50505050905090810190601f168015611e8b5780820380516001836020036101000a031916815260200191505b509250505060405180910390fd5b505050900390565b611eab8282612487565b611eb482611974565b73ffffffffffffffffffffffffffffffffffffffff808316600090815260066020526040812054611dec9216836119ef565b60006107da611ef361178d565b8484611efe565b4690565b73ffffffffffffffffffffffffffffffffffffffff8316611f6a576040517f08c379a00000000000000000000000000000000000000000000000000000000081526004018080602001828103825260258152602001806127cc6025913960400191505060405180910390fd5b73ffffffffffffffffffffffffffffffffffffffff8216611fd6576040517f08c379a000000000000000000000000000000000000000000000000000000000815260040180806020018281038252602381526020018061268a6023913960400191505060405180910390fd5b611fe1838383611bba565b61202b816040518060600160405280602681526020016126f16026913973ffffffffffffffffffffffffffffffffffffffff86166000908152602081905260409020549190611df0565b73ffffffffffffffffffffffffffffffffffffffff80851660009081526020819052604080822093909355908416815220546120679082611bbf565b73ffffffffffffffffffffffffffffffffffffffff8084166000818152602081815260409182902094909455805185815290519193928716927fddf252ad1be2c89b69c2b068fc378daa952ba7f163c4a11628f55a4df523b3ef92918290030190a3505050565b60006120f24360405180606001604052806033815260200161285b603391396125b8565b905060008463ffffffff16118015612166575073ffffffffffffffffffffffffffffffffffffffff8516600090815260076020908152604080832063ffffffff7fffffffffffffffffffffffffffffffffffffffffffffffffffffffffffffffff8901811685529252909120548282169116145b156121ce5773ffffffffffffffffffffffffffffffffffffffff8516600090815260076020908152604080832063ffffffff7fffffffffffffffffffffffffffffffffffffffffffffffffffffffffffffffff89011684529091529020600101829055612267565b60408051808201825263ffffffff8084168252602080830186815273ffffffffffffffffffffffffffffffffffffffff8a166000818152600784528681208b861682528452868120955186549086167fffffffffffffffffffffffffffffffffffffffffffffffffffffffff00000000918216178755925160019687015590815260089092529390208054928801909116919092161790555b6040805184815260208101849052815173ffffffffffffffffffffffffffffffffffffffff8816927fdec2bacdd2f05b59de34da9b523dff8be42e5e38e818c82fdb0bae774387a724928290030190a25050505050565b60008183612327576040517f08c379a0000000000000000000000000000000000000000000000000000000008152602060048201818152835160248401528351909283926044909101919085019080838360008315611e5e578181015183820152602001611e46565b50600083858161233357fe5b0495945050505050565b73ffffffffffffffffffffffffffffffffffffffff82166123a9576040517f08c379a00000000000000000000000000000000000000000000000000000000081526004018080602001828103825260218152602001806127ab6021913960400191505060405180910390fd5b6123b582600083611bba565b6123ff816040518060600160405280602281526020016126ad6022913973ffffffffffffffffffffffffffffffffffffffff85166000908152602081905260409020549190611df0565b73ffffffffffffffffffffffffffffffffffffffff83166000908152602081905260409020556002546124329082612630565b60025560408051828152905160009173ffffffffffffffffffffffffffffffffffffffff8516917fddf252ad1be2c89b69c2b068fc378daa952ba7f163c4a11628f55a4df523b3ef9181900360200190a35050565b73ffffffffffffffffffffffffffffffffffffffff821661250957604080517f08c379a000000000000000000000000000000000000000000000000000000000815260206004820152601f60248201527f45524332303a206d696e7420746f20746865207a65726f206164647265737300604482015290519081900360640190fd5b61251560008383611bba565b6002546125229082611bbf565b60025573ffffffffffffffffffffffffffffffffffffffff82166000908152602081905260409020546125559082611bbf565b73ffffffffffffffffffffffffffffffffffffffff83166000818152602081815260408083209490945583518581529351929391927fddf252ad1be2c89b69c2b068fc378daa952ba7f163c4a11628f55a4df523b3ef9281900390910190a35050565b6000816401000000008410612628576040517f08c379a0000000000000000000000000000000000000000000000000000000008152602060048201818152835160248401528351909283926044909101919085019080838360008315611e5e578181015183820152602001611e46565b509192915050565b60006109ad83836040518060400160405280601e81526020017f536166654d6174683a207375627472616374696f6e206f766572666c6f770000815250611df0565b60408051808201909152600080825260208201529056fe45524332303a207472616e7366657220746f20746865207a65726f206164647265737345524332303a206275726e20616d6f756e7420657863656564732062616c616e636545524332303a20617070726f766520746f20746865207a65726f206164647265737345524332303a207472616e7366657220616d6f756e7420657863656564732062616c616e6365424f4f3a3a6765745072696f72566f7465733a206e6f74207965742064657465726d696e6564424f4f3a3a64656c656761746542795369673a20696e76616c6964207369676e6174757265536166654d6174683a206d756c7469706c69636174696f6e206f766572666c6f7745524332303a207472616e7366657220616d6f756e74206578636565647320616c6c6f77616e636545524332303a206275726e2066726f6d20746865207a65726f206164647265737345524332303a207472616e736665722066726f6d20746865207a65726f2061646472657373424f4f3a3a64656c656761746542795369673a20696e76616c6964206e6f6e636545524332303a20617070726f76652066726f6d20746865207a65726f2061646472657373424f4f3a3a64656c656761746542795369673a207369676e61747572652065787069726564424f4f3a3a5f7772697465436865636b706f696e743a20626c6f636b206e756d6265722065786365656473203332206269747345524332303a2064656372656173656420616c6c6f77616e63652062656c6f77207a65726fa2646970667358221220a8b76c0c48640c52a64c84eebc4a8f2b7cb692e977f3ee4ebb2795d3c5a1aa7b64736f6c634300060c0033",
  "immutableReferences": {},
  "source": "// SPDX-License-Identifier: MIT\n\npragma solidity 0.6.12;\n\nimport \"@openzeppelin/contracts/token/ERC20/IERC20.sol\";\nimport \"@openzeppelin/contracts/token/ERC20/ERC20.sol\";\nimport '@openzeppelin/contracts/math/SafeMath.sol';\n\n// BooMirrorWorld is the place where boo's live to create xBOO. Grim becomes her evil half, ace\n// This contract handles swapping to and from xBoo, SpookySwap's staking token.\ncontract BooMirrorWorld is ERC20(\"Boo MirrorWorld\", \"xBOO\") {\n    using SafeMath for uint256;\n    IERC20 public boo;\n\n    // Define the Boo token contract\n    constructor(IERC20 _boo) public {\n        boo = _boo;\n    }\n\n    // Locks Boo and mints xBoo\n    function enter(uint256 _amount) public {\n        // Gets the amount of Boo locked in the contract\n        uint256 totalBoo = boo.balanceOf(address(this));\n        // Gets the amount of xBoo in existence\n        uint256 totalShares = totalSupply();\n        // If no xBoo exists, mint it 1:1 to the amount put in\n        if (totalShares == 0 || totalBoo == 0) {\n            mint(msg.sender, _amount);\n        } \n        // Calculate and mint the amount of xBoo the Boo is worth. The ratio will change overtime, as xBoo is burned/minted and Boo deposited + gained from fees / withdrawn.\n        else {\n            uint256 what = _amount.mul(totalShares).div(totalBoo);\n            mint(msg.sender, what);\n        }\n        // Lock the Boo in the contract\n        boo.transferFrom(msg.sender, address(this), _amount);\n    }\n\n    // Unlocks the staked + gained Boo and burns xBoo\n    function leave(uint256 _share) public {\n        // Gets the amount of xBoo in existence\n        uint256 totalShares = totalSupply();\n        // Calculates the amount of Boo the xBoo is worth\n        uint256 what = _share.mul(boo.balanceOf(address(this))).div(totalShares);\n        burn(msg.sender, _share);\n        boo.transfer(msg.sender, what);\n    }\n\n    // returns the total amount of BOO an address has in the contract including fees earned\n    function BOOBalance(address _account) external view returns (uint256 booAmount_) {\n        uint256 xBOOAmount = balanceOf(_account);\n        uint256 totalxBOO = totalSupply();\n        booAmount_ = xBOOAmount.mul(boo.balanceOf(address(this))).div(totalxBOO);\n    }\n\n    // returns how much BOO someone gets for redeeming xBOO\n    function xBOOForBOO(uint256 _xBOOAmount) external view returns (uint256 booAmount_) {\n        uint256 totalxBOO = totalSupply();\n        booAmount_ = _xBOOAmount.mul(boo.balanceOf(address(this))).div(totalxBOO);\n    }\n\n    // returns how much xBOO someone gets for depositing BOO\n    function BOOForxBOO(uint256 _booAmount) external view returns (uint256 xBOOAmount_) {\n        uint256 totalBoo = boo.balanceOf(address(this));\n        uint256 totalxBOO = totalSupply();\n        if (totalxBOO == 0 || totalBoo == 0) {\n            xBOOAmount_ = _booAmount;\n        }\n        else {\n            xBOOAmount_ = _booAmount.mul(totalxBOO).div(totalBoo);\n        }\n    }\n\n    // Copied and modified from YAM code:\n    // https://github.com/yam-finance/yam-protocol/blob/master/contracts/token/YAMGovernanceStorage.sol\n    // https://github.com/yam-finance/yam-protocol/blob/master/contracts/token/YAMGovernance.sol\n    // Which is copied and modified from COMPOUND:\n    // https://github.com/compound-finance/compound-protocol/blob/master/contracts/Governance/Comp.sol\n\n    // A record of each accounts delegate\n    mapping (address => address) internal _delegates;\n\n    /// @notice A checkpoint for marking number of votes from a given block\n    struct Checkpoint {\n        uint32 fromBlock;\n        uint256 votes;\n    }\n\n    /// @notice A record of votes checkpoints for each account, by index\n    mapping (address => mapping (uint32 => Checkpoint)) public checkpoints;\n\n    /// @notice The number of checkpoints for each account\n    mapping (address => uint32) public numCheckpoints;\n\n    /// @notice The EIP-712 typehash for the contract's domain\n    bytes32 public constant DOMAIN_TYPEHASH = keccak256(\"EIP712Domain(string name,uint256 chainId,address verifyingContract)\");\n\n    /// @notice The EIP-712 typehash for the delegation struct used by the contract\n    bytes32 public constant DELEGATION_TYPEHASH = keccak256(\"Delegation(address delegatee,uint256 nonce,uint256 expiry)\");\n\n    // A record of states for signing / validating signatures\n    mapping (address => uint) public nonces;\n\n      /// @notice An event thats emitted when an account changes its delegate\n    event DelegateChanged(address indexed delegator, address indexed fromDelegate, address indexed toDelegate);\n\n    /// @notice An event thats emitted when a delegate account's vote balance changes\n    event DelegateVotesChanged(address indexed delegate, uint previousBalance, uint newBalance);\n    \n    function burn(address _from, uint256 _amount) private {\n        _burn(_from, _amount);\n        _moveDelegates(_delegates[_from], address(0), _amount);\n    }\n\n    function mint(address recipient, uint256 _amount) private {\n        _mint(recipient, _amount);\n\n        _initDelegates(recipient);\n\n        _moveDelegates(address(0), _delegates[recipient], _amount);\n    }\n\n    function transferFrom(address sender, address recipient, uint256 amount) \n    public virtual override returns (bool)\n    {\n        bool result = super.transferFrom(sender, recipient, amount); // Call parent hook\n\n        _initDelegates(recipient);\n\n        _moveDelegates(_delegates[sender], _delegates[recipient], amount);\n\n        return result;\n    }\n\n    function transfer(address recipient, uint256 amount) \n    public virtual override returns (bool)\n    {\n        bool result = super.transfer(recipient, amount); // Call parent hook\n\n        _initDelegates(recipient);\n\n        _moveDelegates(_delegates[_msgSender()], _delegates[recipient], amount);\n\n        return result;\n    }\n\n    // initialize delegates mapping of recipient if not already\n    function _initDelegates(address recipient) internal {\n        if(_delegates[recipient] == address(0)) {\n            _delegates[recipient] = recipient;\n        }\n    }\n\n    /**\n     * @param delegator The address to get delegates for\n     */\n    function delegates(address delegator)\n        external\n        view\n        returns (address)\n    {\n        return _delegates[delegator];\n    }\n\n   /**\n    * @notice Delegate votes from `msg.sender` to `delegatee`\n    * @param delegatee The address to delegate votes to\n    */\n    function delegate(address delegatee) external {\n        return _delegate(msg.sender, delegatee);\n    }\n\n    /**\n     * @notice Delegates votes from signatory to `delegatee`\n     * @param delegatee The address to delegate votes to\n     * @param nonce The contract state required to match the signature\n     * @param expiry The time at which to expire the signature\n     * @param v The recovery byte of the signature\n     * @param r Half of the ECDSA signature pair\n     * @param s Half of the ECDSA signature pair\n     */\n    function delegateBySig(address delegatee, uint nonce, uint expiry, uint8 v, bytes32 r, bytes32 s ) external {\n        bytes32 domainSeparator = keccak256(\n            abi.encode(\n                DOMAIN_TYPEHASH,\n                keccak256(bytes(name())),\n                getChainId(),\n                address(this)\n            )\n        );\n\n        bytes32 structHash = keccak256(\n            abi.encode(\n                DELEGATION_TYPEHASH,\n                delegatee,\n                nonce,\n                expiry\n            )\n        );\n\n        bytes32 digest = keccak256(\n            abi.encodePacked(\n                \"\\x19\\x01\",\n                domainSeparator,\n                structHash\n            )\n        );\n\n        address signatory = ecrecover(digest, v, r, s);\n        require(signatory != address(0), \"BOO::delegateBySig: invalid signature\");\n        require(nonce == nonces[signatory]++, \"BOO::delegateBySig: invalid nonce\");\n        require(block.timestamp <= expiry, \"BOO::delegateBySig: signature expired\");\n        return _delegate(signatory, delegatee);\n    }\n\n    /**\n     * @notice Gets the current votes balance for `account`\n     * @param account The address to get votes balance\n     * @return The number of current votes for `account`\n     */\n    function getCurrentVotes(address account)\n        external\n        view\n        returns (uint256)\n    {\n        uint32 nCheckpoints = numCheckpoints[account];\n        return nCheckpoints > 0 ? checkpoints[account][nCheckpoints - 1].votes : 0;\n    }\n\n    /**\n     * @notice Determine the prior number of votes for an account as of a block number\n     * @dev Block number must be a finalized block or else this function will revert to prevent misinformation.\n     * @param account The address of the account to check\n     * @param blockNumber The block number to get the vote balance at\n     * @return The number of votes the account had as of the given block\n     */\n    function getPriorVotes(address account, uint blockNumber)\n        external\n        view\n        returns (uint256)\n    {\n        require(blockNumber < block.number, \"BOO::getPriorVotes: not yet determined\");\n\n        uint32 nCheckpoints = numCheckpoints[account];\n        if (nCheckpoints == 0) {\n            return 0;\n        }\n\n        // First check most recent balance\n        if (checkpoints[account][nCheckpoints - 1].fromBlock <= blockNumber) {\n            return checkpoints[account][nCheckpoints - 1].votes;\n        }\n\n        // Next check implicit zero balance\n        if (checkpoints[account][0].fromBlock > blockNumber) {\n            return 0;\n        }\n\n        uint32 lower = 0;\n        uint32 upper = nCheckpoints - 1;\n        while (upper > lower) {\n            uint32 center = upper - (upper - lower) / 2; // ceil, avoiding overflow\n            Checkpoint memory cp = checkpoints[account][center];\n            if (cp.fromBlock == blockNumber) {\n                return cp.votes;\n            } else if (cp.fromBlock < blockNumber) {\n                lower = center;\n            } else {\n                upper = center - 1;\n            }\n        }\n        return checkpoints[account][lower].votes;\n    }\n\n    function _delegate(address delegator, address delegatee)\n        internal\n    {\n        address currentDelegate = _delegates[delegator];\n        uint256 delegatorBalance = balanceOf(delegator); // balance of underlying BOOs (not scaled);\n        _delegates[delegator] = delegatee;\n\n        emit DelegateChanged(delegator, currentDelegate, delegatee);\n\n        _moveDelegates(currentDelegate, delegatee, delegatorBalance);\n    }\n\n    function _moveDelegates(address srcRep, address dstRep, uint256 amount) internal {\n        if (srcRep != dstRep && amount > 0) {\n            if (srcRep != address(0)) {\n                // decrease old representative\n                uint32 srcRepNum = numCheckpoints[srcRep];\n                uint256 srcRepOld = srcRepNum > 0 ? checkpoints[srcRep][srcRepNum - 1].votes : 0;\n                uint256 srcRepNew = srcRepOld - amount;\n                _writeCheckpoint(srcRep, srcRepNum, srcRepOld, srcRepNew);\n            }\n\n            if (dstRep != address(0)) {\n                // increase new representative\n                uint32 dstRepNum = numCheckpoints[dstRep];\n                uint256 dstRepOld = dstRepNum > 0 ? checkpoints[dstRep][dstRepNum - 1].votes : 0;\n                uint256 dstRepNew = dstRepOld + amount;\n                _writeCheckpoint(dstRep, dstRepNum, dstRepOld, dstRepNew);\n            }\n        }\n    }\n\n    function _writeCheckpoint(\n        address delegatee,\n        uint32 nCheckpoints,\n        uint256 oldVotes,\n        uint256 newVotes\n    )\n        internal\n    {\n        uint32 blockNumber = safe32(block.number, \"BOO::_writeCheckpoint: block number exceeds 32 bits\");\n\n        if (nCheckpoints > 0 && checkpoints[delegatee][nCheckpoints - 1].fromBlock == blockNumber) {\n            checkpoints[delegatee][nCheckpoints - 1].votes = newVotes;\n        } else {\n            checkpoints[delegatee][nCheckpoints] = Checkpoint(blockNumber, newVotes);\n            numCheckpoints[delegatee] = nCheckpoints + 1;\n        }\n\n        emit DelegateVotesChanged(delegatee, oldVotes, newVotes);\n    }\n\n    function safe32(uint n, string memory errorMessage) internal pure returns (uint32) {\n        require(n < 2**32, errorMessage);\n        return uint32(n);\n    }\n\n    function getChainId() internal view returns (uint) {\n        uint256 chainId;\n        assembly { chainId := chainid() }\n        return chainId;\n    }\n\n}",
  "sourcePath": "/home/maki/Dev/spookyswap-xboo-priv/contracts/BooMirrorWorld.sol",
  "compiler": {
    "name": "solc",
    "version": "0.6.12+commit.27d51765.Emscripten.clang"
  },
  "schemaVersion": "3.3.4",
  "updatedAt": "2021-08-02T21:05:26.204Z",
  "devdoc": {
    "kind": "dev",
    "methods": {
      "allowance(address,address)": {
        "details": "See {IERC20-allowance}."
      },
      "approve(address,uint256)": {
        "details": "See {IERC20-approve}. Requirements: - `spender` cannot be the zero address."
      },
      "balanceOf(address)": {
        "details": "See {IERC20-balanceOf}."
      },
      "decimals()": {
        "details": "Returns the number of decimals used to get its user representation. For example, if `decimals` equals `2`, a balance of `505` tokens should be displayed to a user as `5,05` (`505 / 10 ** 2`). Tokens usually opt for a value of 18, imitating the relationship between Ether and Wei. This is the value {ERC20} uses, unless {_setupDecimals} is called. NOTE: This information is only used for _display_ purposes: it in no way affects any of the arithmetic of the contract, including {IERC20-balanceOf} and {IERC20-transfer}."
      },
      "decreaseAllowance(address,uint256)": {
        "details": "Atomically decreases the allowance granted to `spender` by the caller. This is an alternative to {approve} that can be used as a mitigation for problems described in {IERC20-approve}. Emits an {Approval} event indicating the updated allowance. Requirements: - `spender` cannot be the zero address. - `spender` must have allowance for the caller of at least `subtractedValue`."
      },
      "delegate(address)": {
        "params": {
          "delegatee": "The address to delegate votes to"
        }
      },
      "delegateBySig(address,uint256,uint256,uint8,bytes32,bytes32)": {
        "params": {
          "delegatee": "The address to delegate votes to",
          "expiry": "The time at which to expire the signature",
          "nonce": "The contract state required to match the signature",
          "r": "Half of the ECDSA signature pair",
          "s": "Half of the ECDSA signature pair",
          "v": "The recovery byte of the signature"
        }
      },
      "delegates(address)": {
        "params": {
          "delegator": "The address to get delegates for"
        }
      },
      "getCurrentVotes(address)": {
        "params": {
          "account": "The address to get votes balance"
        },
        "returns": {
          "_0": "The number of current votes for `account`"
        }
      },
      "getPriorVotes(address,uint256)": {
        "details": "Block number must be a finalized block or else this function will revert to prevent misinformation.",
        "params": {
          "account": "The address of the account to check",
          "blockNumber": "The block number to get the vote balance at"
        },
        "returns": {
          "_0": "The number of votes the account had as of the given block"
        }
      },
      "increaseAllowance(address,uint256)": {
        "details": "Atomically increases the allowance granted to `spender` by the caller. This is an alternative to {approve} that can be used as a mitigation for problems described in {IERC20-approve}. Emits an {Approval} event indicating the updated allowance. Requirements: - `spender` cannot be the zero address."
      },
      "name()": {
        "details": "Returns the name of the token."
      },
      "symbol()": {
        "details": "Returns the symbol of the token, usually a shorter version of the name."
      },
      "totalSupply()": {
        "details": "See {IERC20-totalSupply}."
      },
      "transfer(address,uint256)": {
        "details": "See {IERC20-transfer}. Requirements: - `recipient` cannot be the zero address. - the caller must have a balance of at least `amount`."
      },
      "transferFrom(address,address,uint256)": {
        "details": "See {IERC20-transferFrom}. Emits an {Approval} event indicating the updated allowance. This is not required by the EIP. See the note at the beginning of {ERC20}; Requirements: - `sender` and `recipient` cannot be the zero address. - `sender` must have a balance of at least `amount`. - the caller must have allowance for ``sender``'s tokens of at least `amount`."
      }
    },
    "version": 1
  },
  "userdoc": {
    "events": {
      "DelegateChanged(address,address,address)": {
        "notice": "An event thats emitted when an account changes its delegate"
      },
      "DelegateVotesChanged(address,uint256,uint256)": {
        "notice": "An event thats emitted when a delegate account's vote balance changes"
      }
    },
    "kind": "user",
    "methods": {
      "DELEGATION_TYPEHASH()": {
        "notice": "The EIP-712 typehash for the delegation struct used by the contract"
      },
      "DOMAIN_TYPEHASH()": {
        "notice": "The EIP-712 typehash for the contract's domain"
      },
      "checkpoints(address,uint32)": {
        "notice": "A record of votes checkpoints for each account, by index"
      },
      "delegate(address)": {
        "notice": "Delegate votes from `msg.sender` to `delegatee`"
      },
      "delegateBySig(address,uint256,uint256,uint8,bytes32,bytes32)": {
        "notice": "Delegates votes from signatory to `delegatee`"
      },
      "getCurrentVotes(address)": {
        "notice": "Gets the current votes balance for `account`"
      },
      "getPriorVotes(address,uint256)": {
        "notice": "Determine the prior number of votes for an account as of a block number"
      },
      "numCheckpoints(address)": {
        "notice": "The number of checkpoints for each account"
      }
    },
    "version": 1
  }
}