{
  "contractName": "BrewBoo",
  "abi": [
    {
      "inputs": [
        {
          "internalType": "address",
          "name": "_factory",
          "type": "address"
        },
        {
          "internalType": "address",
          "name": "_xboo",
          "type": "address"
        },
        {
          "internalType": "address",
          "name": "_boo",
          "type": "address"
        },
        {
          "internalType": "address",
          "name": "_wftm",
          "type": "address"
        }
      ],
      "stateMutability": "nonpayable",
      "type": "constructor"
    },
    {
      "anonymous": false,
      "inputs": [
        {
          "indexed": true,
          "internalType": "address",
          "name": "token",
          "type": "address"
        },
        {
          "indexed": true,
          "internalType": "address",
          "name": "bridge",
          "type": "address"
        }
      ],
      "name": "LogBridgeSet",
      "type": "event"
    },
    {
      "anonymous": false,
      "inputs": [
        {
          "indexed": true,
          "internalType": "address",
          "name": "server",
          "type": "address"
        },
        {
          "indexed": true,
          "internalType": "address",
          "name": "token0",
          "type": "address"
        },
        {
          "indexed": true,
          "internalType": "address",
          "name": "token1",
          "type": "address"
        },
        {
          "indexed": false,
          "internalType": "uint256",
          "name": "amount0",
          "type": "uint256"
        },
        {
          "indexed": false,
          "internalType": "uint256",
          "name": "amount1",
          "type": "uint256"
        },
        {
          "indexed": false,
          "internalType": "uint256",
          "name": "amountBOO",
          "type": "uint256"
        }
      ],
      "name": "LogConvert",
      "type": "event"
    },
    {
      "anonymous": false,
      "inputs": [
        {
          "indexed": true,
          "internalType": "address",
          "name": "previousOwner",
          "type": "address"
        },
        {
          "indexed": true,
          "internalType": "address",
          "name": "newOwner",
          "type": "address"
        }
      ],
      "name": "OwnershipTransferred",
      "type": "event"
    },
    {
      "anonymous": false,
      "inputs": [
        {
          "indexed": false,
          "internalType": "address",
          "name": "_addr",
          "type": "address"
        }
      ],
      "name": "SetDevAddr",
      "type": "event"
    },
    {
      "anonymous": false,
      "inputs": [
        {
          "indexed": false,
          "internalType": "uint256",
          "name": "_amount",
          "type": "uint256"
        }
      ],
      "name": "SetDevCut",
      "type": "event"
    },
    {
      "inputs": [],
      "name": "anyAuth",
      "outputs": [
        {
          "internalType": "bool",
          "name": "",
          "type": "bool"
        }
      ],
      "stateMutability": "view",
      "type": "function",
      "constant": true
    },
    {
      "inputs": [
        {
          "internalType": "uint256",
          "name": "",
          "type": "uint256"
        }
      ],
      "name": "authorized",
      "outputs": [
        {
          "internalType": "address",
          "name": "",
          "type": "address"
        }
      ],
      "stateMutability": "view",
      "type": "function",
      "constant": true
    },
    {
      "inputs": [],
      "name": "devAddr",
      "outputs": [
        {
          "internalType": "address",
          "name": "",
          "type": "address"
        }
      ],
      "stateMutability": "view",
      "type": "function",
      "constant": true
    },
    {
      "inputs": [],
      "name": "devCut",
      "outputs": [
        {
          "internalType": "uint256",
          "name": "",
          "type": "uint256"
        }
      ],
      "stateMutability": "view",
      "type": "function",
      "constant": true
    },
    {
      "inputs": [],
      "name": "factory",
      "outputs": [
        {
          "internalType": "contract IUniswapV2Factory",
          "name": "",
          "type": "address"
        }
      ],
      "stateMutability": "view",
      "type": "function",
      "constant": true
    },
    {
      "inputs": [
        {
          "internalType": "address",
          "name": "",
          "type": "address"
        }
      ],
      "name": "isAuth",
      "outputs": [
        {
          "internalType": "bool",
          "name": "",
          "type": "bool"
        }
      ],
      "stateMutability": "view",
      "type": "function",
      "constant": true
    },
    {
      "inputs": [],
      "name": "owner",
      "outputs": [
        {
          "internalType": "address",
          "name": "",
          "type": "address"
        }
      ],
      "stateMutability": "view",
      "type": "function",
      "constant": true
    },
    {
      "inputs": [],
      "name": "renounceOwnership",
      "outputs": [],
      "stateMutability": "nonpayable",
      "type": "function"
    },
    {
      "inputs": [
        {
          "internalType": "address",
          "name": "newOwner",
          "type": "address"
        }
      ],
      "name": "transferOwnership",
      "outputs": [],
      "stateMutability": "nonpayable",
      "type": "function"
    },
    {
      "inputs": [],
      "name": "xboo",
      "outputs": [
        {
          "internalType": "address",
          "name": "",
          "type": "address"
        }
      ],
      "stateMutability": "view",
      "type": "function",
      "constant": true
    },
    {
      "inputs": [
        {
          "internalType": "address",
          "name": "_auth",
          "type": "address"
        }
      ],
      "name": "addAuth",
      "outputs": [],
      "stateMutability": "nonpayable",
      "type": "function"
    },
    {
      "inputs": [
        {
          "internalType": "address",
          "name": "_auth",
          "type": "address"
        }
      ],
      "name": "revokeAuth",
      "outputs": [],
      "stateMutability": "nonpayable",
      "type": "function"
    },
    {
      "inputs": [
        {
          "internalType": "bool",
          "name": "access",
          "type": "bool"
        }
      ],
      "name": "setAnyAuth",
      "outputs": [],
      "stateMutability": "nonpayable",
      "type": "function"
    },
    {
      "inputs": [
        {
          "internalType": "address",
          "name": "token",
          "type": "address"
        },
        {
          "internalType": "address",
          "name": "bridge",
          "type": "address"
        }
      ],
      "name": "setBridge",
      "outputs": [],
      "stateMutability": "nonpayable",
      "type": "function"
    },
    {
      "inputs": [
        {
          "internalType": "uint256",
          "name": "_amount",
          "type": "uint256"
        }
      ],
      "name": "setDevCut",
      "outputs": [],
      "stateMutability": "nonpayable",
      "type": "function"
    },
    {
      "inputs": [
        {
          "internalType": "address",
          "name": "_addr",
          "type": "address"
        }
      ],
      "name": "setDevAddr",
      "outputs": [],
      "stateMutability": "nonpayable",
      "type": "function"
    },
    {
      "inputs": [
        {
          "internalType": "address",
          "name": "token",
          "type": "address"
        }
      ],
      "name": "bridgeFor",
      "outputs": [
        {
          "internalType": "address",
          "name": "bridge",
          "type": "address"
        }
      ],
      "stateMutability": "view",
      "type": "function",
      "constant": true
    },
    {
      "inputs": [
        {
          "internalType": "address",
          "name": "token0",
          "type": "address"
        },
        {
          "internalType": "address",
          "name": "token1",
          "type": "address"
        }
      ],
      "name": "convert",
      "outputs": [],
      "stateMutability": "nonpayable",
      "type": "function"
    },
    {
      "inputs": [
        {
          "internalType": "address[]",
          "name": "token0",
          "type": "address[]"
        },
        {
          "internalType": "address[]",
          "name": "token1",
          "type": "address[]"
        }
      ],
      "name": "convertMultiple",
      "outputs": [],
      "stateMutability": "nonpayable",
      "type": "function"
    }
  ],
  "bytecode": "0x61010060405260006001556005805460ff191690553480156200002157600080fd5b5060405162002e6638038062002e66833981810160405260808110156200004757600080fd5b508051602082015160408301516060909301519192909160006200006a6200014f565b600080546001600160a01b0319166001600160a01b0383169081178255604051929350917f8be0079c531659141344cd1fd0a4f28419497f9722a3daafe3b4186f6b6457e0908290a3506001600160601b0319606094851b811660805292841b831660a05290831b821660c05290911b1660e052600280546001600160a01b0319908116339081179092556000828152600360205260408120805460ff191660019081179091556004805491820181559091527f8a35acfbc15ff81a39ae7d344fd709f28e8600b4aa8c65c6b64bfe7fe36bd19b018054909116909117905562000153565b3390565b60805160601c60a05160601c60c05160601c60e05160601c612c636200020360003980610c045280610da25280611acf5280611b265280611d195280611d705280611d995280611dc65280611e1d5280611e46525080610bad5280611a125280611a7e5280611b865280611bf25280611c565280611cc252806121b65250806104a35280611aa05280611c145280611ce452806121d8525080610ed0528061139052806121fd5250612c636000f3fe608060405234801561001057600080fd5b50600436106101505760003560e01c80638da5cb5b116100cd578063c45a015511610081578063dbcc106d11610066578063dbcc106d1461041e578063f2fde38b1461043b578063f8171dfa1461046e57610150565b8063c45a01551461040e578063da09c72c1461041657610150565b80639d22ae8c116100b25780639d22ae8c14610365578063a761a939146103a0578063bd1b820c146103d357610150565b80638da5cb5b146103435780639c2868371461034b57610150565b8063303e6aa4116101245780635422224e116101095780635422224e146102d55780636ebb64a214610308578063715018a61461033b57610150565b8063303e6aa4146101f2578063313a3a98146102b657610150565b8062b6ada2146101555780630d48669a146101865780631d01548e146101a35780632520e7ff146101bf575b600080fd5b61015d6104a1565b6040805173ffffffffffffffffffffffffffffffffffffffff9092168252519081900360200190f35b61015d6004803603602081101561019c57600080fd5b50356104c5565b6101ab6104f9565b604080519115158252519081900360200190f35b6101ab600480360360208110156101d557600080fd5b503573ffffffffffffffffffffffffffffffffffffffff16610502565b6102b46004803603604081101561020857600080fd5b81019060208101813564010000000081111561022357600080fd5b82018360208201111561023557600080fd5b8035906020019184602083028401116401000000008311171561025757600080fd5b91939092909160208101903564010000000081111561027557600080fd5b82018360208201111561028757600080fd5b803590602001918460208302840111640100000000831117156102a957600080fd5b509092509050610517565b005b6102b4600480360360208110156102cc57600080fd5b50351515610686565b6102b4600480360360208110156102eb57600080fd5b503573ffffffffffffffffffffffffffffffffffffffff16610748565b6102b46004803603602081101561031e57600080fd5b503573ffffffffffffffffffffffffffffffffffffffff16610882565b6102b46109f8565b61015d610af8565b610353610b14565b60408051918252519081900360200190f35b6102b46004803603604081101561037b57600080fd5b5073ffffffffffffffffffffffffffffffffffffffff81358116916020013516610b1a565b61015d600480360360208110156103b657600080fd5b503573ffffffffffffffffffffffffffffffffffffffff16610d72565b6102b4600480360360408110156103e957600080fd5b5073ffffffffffffffffffffffffffffffffffffffff81358116916020013516610dc7565b61015d610ece565b61015d610ef2565b6102b46004803603602081101561043457600080fd5b5035610f0e565b6102b46004803603602081101561045157600080fd5b503573ffffffffffffffffffffffffffffffffffffffff1661104b565b6102b46004803603602081101561048457600080fd5b503573ffffffffffffffffffffffffffffffffffffffff166111d5565b7f000000000000000000000000000000000000000000000000000000000000000081565b600481815481106104d257fe5b60009182526020909120015473ffffffffffffffffffffffffffffffffffffffff16905081565b60055460ff1681565b60036020526000908152604090205460ff1681565b33321461058557604080517f08c379a000000000000000000000000000000000000000000000000000000000815260206004820152601560248201527f42726577426f6f3a206d7573742075736520454f410000000000000000000000604482015290519081900360640190fd5b3360009081526003602052604090205460ff16806105a5575060055460ff165b61061057604080517f08c379a000000000000000000000000000000000000000000000000000000000815260206004820152601260248201527f42726577426f6f3a20464f5242494444454e0000000000000000000000000000604482015290519081900360640190fd5b8260005b8181101561067e5761067686868381811061062b57fe5b9050602002013573ffffffffffffffffffffffffffffffffffffffff1685858481811061065457fe5b9050602002013573ffffffffffffffffffffffffffffffffffffffff166112b2565b600101610614565b505050505050565b61068e6118eb565b60005473ffffffffffffffffffffffffffffffffffffffff90811691161461071757604080517f08c379a000000000000000000000000000000000000000000000000000000000815260206004820181905260248201527f4f776e61626c653a2063616c6c6572206973206e6f7420746865206f776e6572604482015290519081900360640190fd5b600580547fffffffffffffffffffffffffffffffffffffffffffffffffffffffffffffff0016911515919091179055565b6107506118eb565b60005473ffffffffffffffffffffffffffffffffffffffff9081169116146107d957604080517f08c379a000000000000000000000000000000000000000000000000000000000815260206004820181905260248201527f4f776e61626c653a2063616c6c6572206973206e6f7420746865206f776e6572604482015290519081900360640190fd5b73ffffffffffffffffffffffffffffffffffffffff16600081815260036020526040812080547fffffffffffffffffffffffffffffffffffffffffffffffffffffffffffffff001660019081179091556004805491820181559091527f8a35acfbc15ff81a39ae7d344fd709f28e8600b4aa8c65c6b64bfe7fe36bd19b0180547fffffffffffffffffffffffff0000000000000000000000000000000000000000169091179055565b61088a6118eb565b60005473ffffffffffffffffffffffffffffffffffffffff90811691161461091357604080517f08c379a000000000000000000000000000000000000000000000000000000000815260206004820181905260248201527f4f776e61626c653a2063616c6c6572206973206e6f7420746865206f776e6572604482015290519081900360640190fd5b73ffffffffffffffffffffffffffffffffffffffff811661097f576040517f08c379a000000000000000000000000000000000000000000000000000000000815260040180806020018281038252602a815260200180612bda602a913960400191505060405180910390fd5b6002805473ffffffffffffffffffffffffffffffffffffffff83167fffffffffffffffffffffffff0000000000000000000000000000000000000000909116811790915560408051918252517f45c73fc162405abe4471c4228f0797176ac32cb9f7be4a25a67cbd1dda6d007e9181900360200190a150565b610a006118eb565b60005473ffffffffffffffffffffffffffffffffffffffff908116911614610a8957604080517f08c379a000000000000000000000000000000000000000000000000000000000815260206004820181905260248201527f4f776e61626c653a2063616c6c6572206973206e6f7420746865206f776e6572604482015290519081900360640190fd5b6000805460405173ffffffffffffffffffffffffffffffffffffffff909116907f8be0079c531659141344cd1fd0a4f28419497f9722a3daafe3b4186f6b6457e0908390a3600080547fffffffffffffffffffffffff0000000000000000000000000000000000000000169055565b60005473ffffffffffffffffffffffffffffffffffffffff1690565b60015481565b610b226118eb565b60005473ffffffffffffffffffffffffffffffffffffffff908116911614610bab57604080517f08c379a000000000000000000000000000000000000000000000000000000000815260206004820181905260248201527f4f776e61626c653a2063616c6c6572206973206e6f7420746865206f776e6572604482015290519081900360640190fd5b7f000000000000000000000000000000000000000000000000000000000000000073ffffffffffffffffffffffffffffffffffffffff168273ffffffffffffffffffffffffffffffffffffffff1614158015610c5357507f000000000000000000000000000000000000000000000000000000000000000073ffffffffffffffffffffffffffffffffffffffff168273ffffffffffffffffffffffffffffffffffffffff1614155b8015610c8b57508073ffffffffffffffffffffffffffffffffffffffff168273ffffffffffffffffffffffffffffffffffffffff1614155b610cf657604080517f08c379a000000000000000000000000000000000000000000000000000000000815260206004820152601760248201527f42726577426f6f3a20496e76616c696420627269646765000000000000000000604482015290519081900360640190fd5b73ffffffffffffffffffffffffffffffffffffffff82811660008181526006602052604080822080547fffffffffffffffffffffffff0000000000000000000000000000000000000000169486169485179055517f2e103aa707acc565f9a1547341914802b2bfe977fd79c595209f248ae4b006139190a35050565b73ffffffffffffffffffffffffffffffffffffffff8082166000908152600660205260409020541680610dc257507f00000000000000000000000000000000000000000000000000000000000000005b919050565b333214610e3557604080517f08c379a000000000000000000000000000000000000000000000000000000000815260206004820152601560248201527f42726577426f6f3a206d7573742075736520454f410000000000000000000000604482015290519081900360640190fd5b3360009081526003602052604090205460ff1680610e55575060055460ff165b610ec057604080517f08c379a000000000000000000000000000000000000000000000000000000000815260206004820152601260248201527f42726577426f6f3a20464f5242494444454e0000000000000000000000000000604482015290519081900360640190fd5b610eca82826112b2565b5050565b7f000000000000000000000000000000000000000000000000000000000000000081565b60025473ffffffffffffffffffffffffffffffffffffffff1681565b610f166118eb565b60005473ffffffffffffffffffffffffffffffffffffffff908116911614610f9f57604080517f08c379a000000000000000000000000000000000000000000000000000000000815260206004820181905260248201527f4f776e61626c653a2063616c6c6572206973206e6f7420746865206f776e6572604482015290519081900360640190fd5b61138881111561101057604080517f08c379a000000000000000000000000000000000000000000000000000000000815260206004820152601760248201527f7365744465764375743a2063757420746f6f2068696768000000000000000000604482015290519081900360640190fd5b60018190556040805182815290517f914990c75916d406c148e7fca9308486d7806a77c0ef66119c9329add5885d2e9181900360200190a150565b6110536118eb565b60005473ffffffffffffffffffffffffffffffffffffffff9081169116146110dc57604080517f08c379a000000000000000000000000000000000000000000000000000000000815260206004820181905260248201527f4f776e61626c653a2063616c6c6572206973206e6f7420746865206f776e6572604482015290519081900360640190fd5b73ffffffffffffffffffffffffffffffffffffffff8116611148576040517f08c379a0000000000000000000000000000000000000000000000000000000008152600401808060200182810382526026815260200180612b936026913960400191505060405180910390fd5b6000805460405173ffffffffffffffffffffffffffffffffffffffff808516939216917f8be0079c531659141344cd1fd0a4f28419497f9722a3daafe3b4186f6b6457e091a3600080547fffffffffffffffffffffffff00000000000000000000000000000000000000001673ffffffffffffffffffffffffffffffffffffffff92909216919091179055565b6111dd6118eb565b60005473ffffffffffffffffffffffffffffffffffffffff90811691161461126657604080517f08c379a000000000000000000000000000000000000000000000000000000000815260206004820181905260248201527f4f776e61626c653a2063616c6c6572206973206e6f7420746865206f776e6572604482015290519081900360640190fd5b73ffffffffffffffffffffffffffffffffffffffff16600090815260036020526040902080547fffffffffffffffffffffffffffffffffffffffffffffffffffffffffffffff00169055565b6000808273ffffffffffffffffffffffffffffffffffffffff168473ffffffffffffffffffffffffffffffffffffffff16141561138c57604080517f70a08231000000000000000000000000000000000000000000000000000000008152306004820152905173ffffffffffffffffffffffffffffffffffffffff8616916370a08231916024808301926020929190829003018186803b15801561135557600080fd5b505afa158015611369573d6000803e3d6000fd5b505050506040513d602081101561137f57600080fd5b505191506000905061187d565b60007f000000000000000000000000000000000000000000000000000000000000000073ffffffffffffffffffffffffffffffffffffffff1663e6a4390586866040518363ffffffff1660e01b8152600401808373ffffffffffffffffffffffffffffffffffffffff1681526020018273ffffffffffffffffffffffffffffffffffffffff1681526020019250505060206040518083038186803b15801561143357600080fd5b505afa158015611447573d6000803e3d6000fd5b505050506040513d602081101561145d57600080fd5b5051905073ffffffffffffffffffffffffffffffffffffffff81166114e357604080517f08c379a000000000000000000000000000000000000000000000000000000000815260206004820152601560248201527f42726577426f6f3a20496e76616c696420706169720000000000000000000000604482015290519081900360640190fd5b611598818273ffffffffffffffffffffffffffffffffffffffff166370a08231306040518263ffffffff1660e01b8152600401808273ffffffffffffffffffffffffffffffffffffffff16815260200191505060206040518083038186803b15801561154e57600080fd5b505afa158015611562573d6000803e3d6000fd5b505050506040513d602081101561157857600080fd5b505173ffffffffffffffffffffffffffffffffffffffff841691906118ef565b60008573ffffffffffffffffffffffffffffffffffffffff166370a08231306040518263ffffffff1660e01b8152600401808273ffffffffffffffffffffffffffffffffffffffff16815260200191505060206040518083038186803b15801561160157600080fd5b505afa158015611615573d6000803e3d6000fd5b505050506040513d602081101561162b57600080fd5b5051604080517f70a08231000000000000000000000000000000000000000000000000000000008152306004820152905191925060009173ffffffffffffffffffffffffffffffffffffffff8816916370a08231916024808301926020929190829003018186803b15801561169f57600080fd5b505afa1580156116b3573d6000803e3d6000fd5b505050506040513d60208110156116c957600080fd5b5051604080517f89afcb44000000000000000000000000000000000000000000000000000000008152306004820152815192935073ffffffffffffffffffffffffffffffffffffffff8616926389afcb44926024808401939192918290030181600087803b15801561173a57600080fd5b505af115801561174e573d6000803e3d6000fd5b505050506040513d604081101561176457600080fd5b5050604080517f70a08231000000000000000000000000000000000000000000000000000000008152306004820152905161180a91849173ffffffffffffffffffffffffffffffffffffffff8b16916370a08231916024808301926020929190829003018186803b1580156117d857600080fd5b505afa1580156117ec573d6000803e3d6000fd5b505050506040513d602081101561180257600080fd5b505190611981565b9450611877818773ffffffffffffffffffffffffffffffffffffffff166370a08231306040518263ffffffff1660e01b8152600401808273ffffffffffffffffffffffffffffffffffffffff16815260200191505060206040518083038186803b1580156117d857600080fd5b93505050505b73ffffffffffffffffffffffffffffffffffffffff808416908516337fd06b1d7ed79b664d17472c6f6997b929f1abe463ccccb4e5b6a0038f2f730c1585856118c88a8a84846119cc565b60408051938452602084019290925282820152519081900360600190a450505050565b3390565b6040805173ffffffffffffffffffffffffffffffffffffffff8416602482015260448082018490528251808303909101815260649091019091526020810180517bffffffffffffffffffffffffffffffffffffffffffffffffffffffff167fa9059cbb0000000000000000000000000000000000000000000000000000000017905261197c908490611f4e565b505050565b60006119c383836040518060400160405280601e81526020017f536166654d6174683a207375627472616374696f6e206f766572666c6f770000815250612026565b90505b92915050565b60008373ffffffffffffffffffffffffffffffffffffffff168573ffffffffffffffffffffffffffffffffffffffff161415611b84576000611a0e84846120d7565b90507f000000000000000000000000000000000000000000000000000000000000000073ffffffffffffffffffffffffffffffffffffffff168673ffffffffffffffffffffffffffffffffffffffff161415611acd57611ac573ffffffffffffffffffffffffffffffffffffffff7f0000000000000000000000000000000000000000000000000000000000000000167f0000000000000000000000000000000000000000000000000000000000000000836118ef565b809150611b7e565b7f000000000000000000000000000000000000000000000000000000000000000073ffffffffffffffffffffffffffffffffffffffff168673ffffffffffffffffffffffffffffffffffffffff161415611b5257611b4b7f00000000000000000000000000000000000000000000000000000000000000008261214b565b9150611b7e565b6000611b5d87610d72565b9050611b6b878284306121f8565b9150611b7a81828460006119cc565b9250505b50611f46565b7f000000000000000000000000000000000000000000000000000000000000000073ffffffffffffffffffffffffffffffffffffffff168573ffffffffffffffffffffffffffffffffffffffff161415611c5457611c3973ffffffffffffffffffffffffffffffffffffffff7f0000000000000000000000000000000000000000000000000000000000000000167f0000000000000000000000000000000000000000000000000000000000000000856118ef565b611c4d83611c47868561214b565b906120d7565b9050611f46565b7f000000000000000000000000000000000000000000000000000000000000000073ffffffffffffffffffffffffffffffffffffffff168473ffffffffffffffffffffffffffffffffffffffff161415611d1757611d0973ffffffffffffffffffffffffffffffffffffffff7f0000000000000000000000000000000000000000000000000000000000000000167f0000000000000000000000000000000000000000000000000000000000000000846118ef565b611c4d82611c47878661214b565b7f000000000000000000000000000000000000000000000000000000000000000073ffffffffffffffffffffffffffffffffffffffff168573ffffffffffffffffffffffffffffffffffffffff161415611dc457611c4d7f0000000000000000000000000000000000000000000000000000000000000000611dbf85611c47887f000000000000000000000000000000000000000000000000000000000000000088306121f8565b61214b565b7f000000000000000000000000000000000000000000000000000000000000000073ffffffffffffffffffffffffffffffffffffffff168473ffffffffffffffffffffffffffffffffffffffff161415611e6c57611c4d7f0000000000000000000000000000000000000000000000000000000000000000611dbf84611c47897f000000000000000000000000000000000000000000000000000000000000000089306121f8565b6000611e7786610d72565b90506000611e8486610d72565b90508573ffffffffffffffffffffffffffffffffffffffff168273ffffffffffffffffffffffffffffffffffffffff161415611ed857611ed18287611ecb8a868a306121f8565b876119cc565b9250611f43565b8673ffffffffffffffffffffffffffffffffffffffff168173ffffffffffffffffffffffffffffffffffffffff161415611f2357611ed1878287611f1e8a868a306121f8565b6119cc565b611f408282611f348a868a306121f8565b611f1e8a868a306121f8565b92505b50505b949350505050565b6060611fb0826040518060400160405280602081526020017f5361666545524332303a206c6f772d6c6576656c2063616c6c206661696c65648152508573ffffffffffffffffffffffffffffffffffffffff1661270c9092919063ffffffff16565b80519091501561197c57808060200190516020811015611fcf57600080fd5b505161197c576040517f08c379a000000000000000000000000000000000000000000000000000000000815260040180806020018281038252602a815260200180612c04602a913960400191505060405180910390fd5b600081848411156120cf576040517f08c379a00000000000000000000000000000000000000000000000000000000081526004018080602001828103825283818151815260200191508051906020019080838360005b8381101561209457818101518382015260200161207c565b50505050905090810190601f1680156120c15780820380516001836020036101000a031916815260200191505b509250505060405180910390fd5b505050900390565b6000828201838110156119c357604080517f08c379a000000000000000000000000000000000000000000000000000000000815260206004820152601b60248201527f536166654d6174683a206164646974696f6e206f766572666c6f770000000000604482015290519081900360640190fd5b6001546000908290156121b0576121796127106121736001548461271b90919063ffffffff16565b9061278e565b6002549091506121a39073ffffffffffffffffffffffffffffffffffffffff8681169116836118ef565b6121ad8382611981565b90505b611f46847f0000000000000000000000000000000000000000000000000000000000000000837f00000000000000000000000000000000000000000000000000000000000000005b6000807f000000000000000000000000000000000000000000000000000000000000000073ffffffffffffffffffffffffffffffffffffffff1663e6a4390587876040518363ffffffff1660e01b8152600401808373ffffffffffffffffffffffffffffffffffffffff1681526020018273ffffffffffffffffffffffffffffffffffffffff1681526020019250505060206040518083038186803b1580156122a057600080fd5b505afa1580156122b4573d6000803e3d6000fd5b505050506040513d60208110156122ca57600080fd5b5051905073ffffffffffffffffffffffffffffffffffffffff811661235057604080517f08c379a000000000000000000000000000000000000000000000000000000000815260206004820152601760248201527f42726577426f6f3a2043616e6e6f7420636f6e76657274000000000000000000604482015290519081900360640190fd5b6000808273ffffffffffffffffffffffffffffffffffffffff16630902f1ac6040518163ffffffff1660e01b815260040160606040518083038186803b15801561239957600080fd5b505afa1580156123ad573d6000803e3d6000fd5b505050506040513d60608110156123c357600080fd5b508051602091820151604080517f0dfe168100000000000000000000000000000000000000000000000000000000815290516dffffffffffffffffffffffffffff9384169650929091169350600092839273ffffffffffffffffffffffffffffffffffffffff881692630dfe1681926004808301939192829003018186803b15801561244e57600080fd5b505afa158015612462573d6000803e3d6000fd5b505050506040513d602081101561247857600080fd5b505173ffffffffffffffffffffffffffffffffffffffff8b81169116146124a05782846124a3565b83835b90925090506124c973ffffffffffffffffffffffffffffffffffffffff8b16868a6118ef565b6000612536838c73ffffffffffffffffffffffffffffffffffffffff166370a08231896040518263ffffffff1660e01b8152600401808273ffffffffffffffffffffffffffffffffffffffff16815260200191505060206040518083038186803b1580156117d857600080fd5b90506125438184846127d0565b96506000808773ffffffffffffffffffffffffffffffffffffffff16630dfe16816040518163ffffffff1660e01b815260040160206040518083038186803b15801561258e57600080fd5b505afa1580156125a2573d6000803e3d6000fd5b505050506040513d60208110156125b857600080fd5b505173ffffffffffffffffffffffffffffffffffffffff8e81169116146125e1578860006125e5565b6000895b6040805160008082526020820190925292945090925073ffffffffffffffffffffffffffffffffffffffff8a169163022c0d9f91859185918f9190506040518563ffffffff1660e01b8152600401808581526020018481526020018373ffffffffffffffffffffffffffffffffffffffff16815260200180602001828103825283818151815260200191508051906020019080838360005b8381101561269557818101518382015260200161267d565b50505050905090810190601f1680156126c25780820380516001836020036101000a031916815260200191505b5095505050505050600060405180830381600087803b1580156126e457600080fd5b505af11580156126f8573d6000803e3d6000fd5b505050505050505050505050949350505050565b6060611f4684846000856128ec565b60008261272a575060006119c6565b8282028284828161273757fe5b04146119c3576040517f08c379a0000000000000000000000000000000000000000000000000000000008152600401808060200182810382526021815260200180612bb96021913960400191505060405180910390fd5b60006119c383836040518060400160405280601a81526020017f536166654d6174683a206469766973696f6e206279207a65726f000000000000815250612ab8565b600080841161282a576040517f08c379a0000000000000000000000000000000000000000000000000000000008152600401808060200182810382526022815260200180612b716022913960400191505060405180910390fd5b60008311801561283a5750600082115b6128a557604080517f08c379a000000000000000000000000000000000000000000000000000000000815260206004820152601f60248201527f42726577426f6f3a20494e53554646494349454e545f4c495155494449545900604482015290519081900360640190fd5b60006128b3856103e661271b565b905060006128c1828561271b565b905060006128d583611c47886103e861271b565b90508082816128e057fe5b04979650505050505050565b60606128f785612b37565b61296257604080517f08c379a000000000000000000000000000000000000000000000000000000000815260206004820152601d60248201527f416464726573733a2063616c6c20746f206e6f6e2d636f6e7472616374000000604482015290519081900360640190fd5b600060608673ffffffffffffffffffffffffffffffffffffffff1685876040518082805190602001908083835b602083106129cc57805182527fffffffffffffffffffffffffffffffffffffffffffffffffffffffffffffffe0909201916020918201910161298f565b6001836020036101000a03801982511681845116808217855250505050505090500191505060006040518083038185875af1925050503d8060008114612a2e576040519150601f19603f3d011682016040523d82523d6000602084013e612a33565b606091505b50915091508115612a47579150611f469050565b805115612a575780518082602001fd5b6040517f08c379a000000000000000000000000000000000000000000000000000000000815260206004820181815286516024840152865187939192839260440191908501908083836000831561209457818101518382015260200161207c565b60008183612b21576040517f08c379a000000000000000000000000000000000000000000000000000000000815260206004820181815283516024840152835190928392604490910191908501908083836000831561209457818101518382015260200161207c565b506000838581612b2d57fe5b0495945050505050565b6000813f7fc5d2460186f7233c927e7db2dcc703c0e500b653ca82273b7bfad8045d85a470818114801590611f4657505015159291505056fe42726577426f6f3a20494e53554646494349454e545f494e5055545f414d4f554e544f776e61626c653a206e6577206f776e657220697320746865207a65726f2061646472657373536166654d6174683a206d756c7469706c69636174696f6e206f766572666c6f77736574446576416464722c20616464726573732063616e6e6f74206265207a65726f20616464726573735361666545524332303a204552433230206f7065726174696f6e20646964206e6f742073756363656564a2646970667358221220d9bd3f12a44dbf2a392e27150deb1a82df1951b2e3d0dc81985678afde66bc8e64736f6c634300060c0033",
  "immutableReferences": {
    "17": [
      {
        "length": 32,
        "start": 3792
      },
      {
        "length": 32,
        "start": 5008
      },
      {
        "length": 32,
        "start": 8701
      }
    ],
    "19": [
      {
        "length": 32,
        "start": 1187
      },
      {
        "length": 32,
        "start": 6816
      },
      {
        "length": 32,
        "start": 7188
      },
      {
        "length": 32,
        "start": 7396
      },
      {
        "length": 32,
        "start": 8664
      }
    ],
    "21": [
      {
        "length": 32,
        "start": 2989
      },
      {
        "length": 32,
        "start": 6674
      },
      {
        "length": 32,
        "start": 6782
      },
      {
        "length": 32,
        "start": 7046
      },
      {
        "length": 32,
        "start": 7154
      },
      {
        "length": 32,
        "start": 7254
      },
      {
        "length": 32,
        "start": 7362
      },
      {
        "length": 32,
        "start": 8630
      }
    ],
    "23": [
      {
        "length": 32,
        "start": 3076
      },
      {
        "length": 32,
        "start": 3490
      },
      {
        "length": 32,
        "start": 6863
      },
      {
        "length": 32,
        "start": 6950
      },
      {
        "length": 32,
        "start": 7449
      },
      {
        "length": 32,
        "start": 7536
      },
      {
        "length": 32,
        "start": 7577
      },
      {
        "length": 32,
        "start": 7622
      },
      {
        "length": 32,
        "start": 7709
      },
      {
        "length": 32,
        "start": 7750
      }
    ]
  },
  "source": "// SPDX-License-Identifier: MIT\n\n// P1 - P3: OK\npragma solidity 0.6.12;\n\nimport '@openzeppelin/contracts/token/ERC20/SafeERC20.sol';\nimport '@openzeppelin/contracts/math/SafeMath.sol';\nimport '@openzeppelin/contracts/access/Ownable.sol';\nimport \"./interfaces/IUniswapV2ERC20.sol\";\nimport \"./interfaces/IUniswapV2Pair.sol\";\nimport \"./interfaces/IUniswapV2Factory.sol\";\n\n// BrewBoo is MasterChef's left hand and kinda a wizard. He can brew Boo from pretty much anything!\n// This contract handles \"serving up\" rewards for xBoo holders by trading tokens collected from fees for Boo.\n\n// T1 - T4: OK\ncontract BrewBoo is Ownable {\n    using SafeMath for uint256;\n    using SafeERC20 for IERC20;\n\n    IUniswapV2Factory public immutable factory;\n\n    address public immutable xboo;\n    address private immutable boo;\n    address private immutable wftm;\n    uint public devCut = 0;  // in basis points aka parts per 10,000 so 5000 is 50%, cap of 50%, default is 0\n    address public devAddr;\n\n    // set of addresses that can perform certain functions\n    mapping(address => bool) public isAuth;\n    address[] public authorized;\n    bool public anyAuth = false;\n\n    modifier onlyAuth() {\n        require(isAuth[msg.sender] || anyAuth, \"BrewBoo: FORBIDDEN\");\n        _;\n    }\n\n    // V1 - V5: OK\n    mapping(address => address) internal _bridges;\n\n    event SetDevAddr(address _addr);\n    event SetDevCut(uint _amount);\n    event LogBridgeSet(address indexed token, address indexed bridge);\n    event LogConvert(\n        address indexed server,\n        address indexed token0,\n        address indexed token1,\n        uint256 amount0,\n        uint256 amount1,\n        uint256 amountBOO\n    );\n\n    constructor(\n        address _factory,\n        address _xboo,\n        address _boo,\n        address _wftm\n    ) public {\n        factory = IUniswapV2Factory(_factory);\n        xboo = _xboo;\n        boo = _boo;\n        wftm = _wftm;\n        devAddr = msg.sender;\n        isAuth[msg.sender] = true;\n        authorized.push(msg.sender);\n    }\n    // Begin Owner functions\n    function addAuth(address _auth) external onlyOwner {\n        isAuth[_auth] = true;\n        authorized.push(_auth);\n    }\n\n    function revokeAuth(address _auth) external onlyOwner {\n        isAuth[_auth] = false;\n    }\n\n    // setting anyAuth to true allows anyone to call functions protected by onlyAuth\n    function setAnyAuth(bool access) external onlyOwner {\n        anyAuth = access;\n    }\n\n    function setBridge(address token, address bridge) external onlyOwner {\n        // Checks\n        require(\n            token != boo && token != wftm && token != bridge,\n            \"BrewBoo: Invalid bridge\"\n        );\n\n        // Effects\n        _bridges[token] = bridge;\n        emit LogBridgeSet(token, bridge);\n    }\n\n    function setDevCut(uint _amount) external onlyOwner {\n        require(_amount <= 5000, \"setDevCut: cut too high\");\n        devCut = _amount;\n        \n        emit SetDevCut(_amount);\n    }\n\n    function setDevAddr(address _addr) external onlyOwner {\n        require(_addr != address(0), \"setDevAddr, address cannot be zero address\");\n        devAddr = _addr;\n\n        emit SetDevAddr(_addr);\n    }\n    // End owner functions\n\n    function bridgeFor(address token) public view returns (address bridge) {\n        bridge = _bridges[token];\n        if (bridge == address(0)) {\n            bridge = wftm;\n        }\n    }\n\n    // C6: It's not a fool proof solution, but it prevents flash loans, so here it's ok to use tx.origin\n    modifier onlyEOA() {\n        // Try to make flash-loan exploit harder to do by only allowing externally owned addresses.\n        require(msg.sender == tx.origin, \"BrewBoo: must use EOA\");\n        _;\n    }\n\n    // F1 - F10: OK\n    // F3: _convert is separate to save gas by only checking the 'onlyEOA' modifier once in case of convertMultiple\n    // F6: There is an exploit to add lots of BOO to the xboo, run convert, then remove the BOO again.\n    //     As the size of the Booxboo has grown, this requires large amounts of funds and isn't super profitable anymore\n    //     The onlyEOA modifier prevents this being done with a flash loan.\n    // C1 - C24: OK\n    function convert(address token0, address token1) external onlyEOA() onlyAuth() {\n        _convert(token0, token1);\n    }\n\n    // F1 - F10: OK, see convert\n    // C1 - C24: OK\n    // C3: Loop is under control of the caller\n    function convertMultiple(\n        address[] calldata token0,\n        address[] calldata token1\n    ) external onlyEOA() onlyAuth() {\n        // TODO: This can be optimized a fair bit, but this is safer and simpler for now\n        uint256 len = token0.length;\n        for (uint256 i = 0; i < len; i++) {\n            _convert(token0[i], token1[i]);\n        }\n    }\n\n    // F1 - F10: OK\n    // C1- C24: OK\n    function _convert(address token0, address token1) internal {\n        uint256 amount0;\n        uint256 amount1;\n\n        // handle case where non-LP tokens need to be converted\n        if(token0 == token1) {\n            amount0 = IERC20(token0).balanceOf(address(this));\n            amount1 = 0;\n        }\n        else {\n\n            IUniswapV2Pair pair = IUniswapV2Pair(factory.getPair(token0, token1));\n            require(address(pair) != address(0), \"BrewBoo: Invalid pair\");\n\n            IERC20(address(pair)).safeTransfer(\n                address(pair),\n                pair.balanceOf(address(this))\n            );\n\n            // take balance of tokens in this contract before burning the pair, incase there are already some here\n            uint tok0bal = IERC20(token0).balanceOf(address(this));\n            uint tok1bal = IERC20(token1).balanceOf(address(this));\n\n            pair.burn(address(this));\n\n            // subtract old balance of tokens from new balance\n            // the return values of pair.burn cant be trusted due to transfer tax tokens\n            amount0 = IERC20(token0).balanceOf(address(this)).sub(tok0bal);\n            amount1 = IERC20(token1).balanceOf(address(this)).sub(tok1bal);\n            \n        }\n        emit LogConvert(\n            msg.sender,\n            token0,\n            token1,\n            amount0,\n            amount1,\n            _convertStep(token0, token1, amount0, amount1)\n        );\n    }\n\n    // F1 - F10: OK\n    // C1 - C24: OK\n    // All safeTransfer, _swap, _toBOO, _convertStep: X1 - X5: OK\n    function _convertStep(\n        address token0,\n        address token1,\n        uint256 amount0,\n        uint256 amount1\n    ) internal returns (uint256 booOut) {\n        // Interactions\n        if (token0 == token1) {\n            uint256 amount = amount0.add(amount1);\n            if (token0 == boo) {\n                IERC20(boo).safeTransfer(xboo, amount);\n                booOut = amount;\n            } else if (token0 == wftm) {\n                booOut = _toBOO(wftm, amount);\n            } else {\n                address bridge = bridgeFor(token0);\n                amount = _swap(token0, bridge, amount, address(this));\n                booOut = _convertStep(bridge, bridge, amount, 0);\n            }\n        } else if (token0 == boo) {\n            // eg. BOO - ETH\n            IERC20(boo).safeTransfer(xboo, amount0);\n            booOut = _toBOO(token1, amount1).add(amount0);\n        } else if (token1 == boo) {\n            // eg. USDT - BOO\n            IERC20(boo).safeTransfer(xboo, amount1);\n            booOut = _toBOO(token0, amount0).add(amount1);\n        } else if (token0 == wftm) {\n            // eg. ETH - USDC\n            booOut = _toBOO(\n                wftm,\n                _swap(token1, wftm, amount1, address(this)).add(amount0)\n            );\n        } else if (token1 == wftm) {\n            // eg. USDT - ETH\n            booOut = _toBOO(\n                wftm,\n                _swap(token0, wftm, amount0, address(this)).add(amount1)\n            );\n        } else {\n            // eg. MIC - USDT\n            address bridge0 = bridgeFor(token0);\n            address bridge1 = bridgeFor(token1);\n            if (bridge0 == token1) {\n                // eg. MIC - USDT - and bridgeFor(MIC) = USDT\n                booOut = _convertStep(\n                    bridge0,\n                    token1,\n                    _swap(token0, bridge0, amount0, address(this)),\n                    amount1\n                );\n            } else if (bridge1 == token0) {\n                // eg. WBTC - DSD - and bridgeFor(DSD) = WBTC\n                booOut = _convertStep(\n                    token0,\n                    bridge1,\n                    amount0,\n                    _swap(token1, bridge1, amount1, address(this))\n                );\n            } else {\n                booOut = _convertStep(\n                    bridge0,\n                    bridge1, // eg. USDT - DSD - and bridgeFor(DSD) = WBTC\n                    _swap(token0, bridge0, amount0, address(this)),\n                    _swap(token1, bridge1, amount1, address(this))\n                );\n            }\n        }\n    }\n\n    // F1 - F10: OK\n    // C1 - C24: OK\n    // All safeTransfer, swap: X1 - X5: OK\n    function _swap(\n        address fromToken,\n        address toToken,\n        uint256 amountIn,\n        address to\n    ) internal returns (uint256 amountOut) {\n        // Checks\n        // X1 - X5: OK\n        IUniswapV2Pair pair =\n            IUniswapV2Pair(factory.getPair(fromToken, toToken));\n        require(address(pair) != address(0), \"BrewBoo: Cannot convert\");\n\n        (uint256 reserve0, uint256 reserve1, ) = pair.getReserves();\n        (uint reserveInput, uint reserveOutput) = fromToken == pair.token0() ? (reserve0, reserve1) : (reserve1, reserve0);\n        IERC20(fromToken).safeTransfer(address(pair), amountIn);\n        uint amountInput = IERC20(fromToken).balanceOf(address(pair)).sub(reserveInput); // calculate amount that was transferred, this accounts for transfer taxes\n\n        amountOut = getAmountOut(amountInput, reserveInput, reserveOutput);\n        (uint amount0Out, uint amount1Out) = fromToken == pair.token0() ? (uint(0), amountOut) : (amountOut, uint(0));\n        pair.swap(amount0Out, amount1Out, to, new bytes(0));        \n    }\n\n    // F1 - F10: OK\n    // C1 - C24: OK\n    function _toBOO(address token, uint256 amountIn)\n        internal\n        returns (uint256 amountOut)\n    {   \n        uint256 amount = amountIn;\n        if (devCut > 0) {\n            amount = amount.mul(devCut).div(10000);\n            IERC20(token).safeTransfer(devAddr, amount);\n            amount = amountIn.sub(amount);\n        }\n        amountOut = _swap(token, boo, amount, xboo);\n    }\n\n    function getAmountOut(uint amountIn, uint reserveIn, uint reserveOut) internal pure returns (uint amountOut) {\n        require(amountIn > 0, 'BrewBoo: INSUFFICIENT_INPUT_AMOUNT');\n        require(reserveIn > 0 && reserveOut > 0, 'BrewBoo: INSUFFICIENT_LIQUIDITY');\n        uint amountInWithFee = amountIn.mul(998);\n        uint numerator = amountInWithFee.mul(reserveOut);\n        uint denominator = reserveIn.mul(1000).add(amountInWithFee);\n        amountOut = numerator / denominator;\n    }\n}\n",
  "sourcePath": "/home/maki/Dev/spookyswap-xboo-priv/contracts/BrewBoo.sol",
  "compiler": {
    "name": "solc",
    "version": "0.6.12+commit.27d51765.Emscripten.clang"
  },
  "schemaVersion": "3.3.4",
  "updatedAt": "2021-08-02T22:20:17.838Z",
  "networkType": "ethereum",
  "devdoc": {
    "kind": "dev",
    "methods": {
      "owner()": {
        "details": "Returns the address of the current owner."
      },
      "renounceOwnership()": {
        "details": "Leaves the contract without owner. It will not be possible to call `onlyOwner` functions anymore. Can only be called by the current owner. NOTE: Renouncing ownership will leave the contract without an owner, thereby removing any functionality that is only available to the owner."
      },
      "transferOwnership(address)": {
        "details": "Transfers ownership of the contract to a new account (`newOwner`). Can only be called by the current owner."
      }
    },
    "version": 1
  },
  "userdoc": {
    "kind": "user",
    "methods": {},
    "version": 1
  }
}